:020000040000FA
:06000000DDEF08F0120024
:0600180032EF07F01200B8
:06002A000200E0110000DD
:100030006000000030020000D8110000EC02000057
:0400400008000000B4
:0C004400D9CFE6FFE1CFD9FF020EE12684
:10005000DE6ADD6ADECF20F0DDCF21F0E80E205C25
:10006000030E215805E2DF2A010E01E3DB2AF2D755
:10007000020EE15C02E2E16AE552E16EE552E7CF91
:10008000D9FF1200D9CFE6FFE1CFD9FF020EE1265A
:10009000DE6ADD6ADECF20F0DDCF21F0740E205C59
:1000A000040E215805E2DF2A010E01E3DB2AF2D714
:1000B000020EE15C02E2E16AE552E16EE552E7CF51
:1000C000D9FF1200D9CFE6FFE1CFD9FF020EE1261A
:1000D000DE6ADD6ADE6ADD6ADECF20F0DDCF21F088
:1000E000FD0EDBCF22F0FE0EDBCF23F02250205C92
:1000F0002350215806E2C6DFDF2A010E01E3DB2A86
:10010000EBD7020EE15C02E2E16AE552E16EE552F4
:10011000E7CFD9FF12008C9E95DF8C8E8C9C92DFEE
:100120008C8C90DFE66A210EE66EDFD9E552E5524F
:10013000E66AC80EE66ED9D9E552E552E66A060EC1
:10014000E66ED3D9E552E552E66A130EE66ECDD9D6
:10015000E552E552E66A200EE66EC7D9E552E55251
:1001600008D8E66A0C0EE66EC0D9E552E5528C9CC2
:100170001200D9CFE6FFE1CFD9FF020EE126E66AF1
:100180000C0EE66EB2D9E552E552E66A800EE66ED6
:10019000ACD9E552E552DE6ADD6ADECF20F0DDCF74
:1001A00021F0F80E205C010E21580BE2010EE66EE4
:1001B000E66A9BD9E552E552DF2A010E01E3DB2A0C
:1001C000ECD7020EE15C02E2E16AE552E16EE55233
:1001D000E7CFD9FF1200D9CFE6FFE1CFD9FFE66A1A
:1001E000FD0EDB504009E66E80D9E552E552E66A25
:1001F000FE0EDB508009E66E78D9E552E552E552F5
:10020000E7CFD9FF1200D9CFE6FFE1CFD9FFE65201
:10021000200E206EFE0EDBCFE7FF2050E75EFE0EC5
:10022000E7CFDBFFDF6A060EDF5C1BE2010EE66E46
:10023000FE0EDB50060DF3CF20F0F4CF21F0680E58
:100240002026000E2122DF500F012024E96E000E2F
:100250002120EA6EEF50E66E48D9E552E552DF2ADA
:10026000E2D7E552E552E7CFD9FF1200D9CFE6FF3A
:10027000E1CFD9FFFD0EDBCFE6FFFE0EDBCFE6FFC1
:10028000AADFE552E552FB0EDBCFE9FFFC0EDBCF28
:10029000EAFFEF5010E0FB0EDBCFE9FFFC0EDBCFF7
:1002A000EAFFEF50E66EAFDFE552FB0EDB2AFC0EF5
:1002B00001E3DB2AE8D7E552E7CFD9FF1200D9CF17
:1002C000E6FFE1CFD9FF020EE126FD0EDBCFE6FF10
:1002D000FE0EDBCFE6FF7FDFE552E552DF6AFB0E65
:1002E000DB50DF5C6DE2010EDB6AFC0EDB50E824C4
:1002F000F36E010EDBCFF4FFF350F45C4AE2FC0E28
:10030000DB50F36E010EDB50F35C21E1DF500AE1BC
:10031000FD0EDB28E66EFE0EDBCFE6FF5CDFE5526E
:10032000E55215D0FD0EDB28E66EFE0EDBCFE6FFB4
:10033000F90EDBCFE6FFFC0EDB50E552E724DF02CF
:10034000F350E552E724E66E46DFE552E552010E32
:10035000E66EF70EDBCF22F0F80EDBCF23F0FA0EBD
:10036000DB50DF241A0D2250F324206E2350F4209A
:10037000216E010EDB500F012024E96E000E2120BA
:10038000EA6EEF50E66EB1D8E552E552010EDB2A77
:10039000ACD7DF2AFD0EDBCFE6FFFE0EDBCFE6FF9C
:1003A000F90EDBCFE6FFFC0EDB50E552E724DF025F
:1003B000F350E552E724E66E0EDFE552E5528FD7A3
:1003C000020EE15C02E2E16AE552E16EE552E7CF3E
:1003D000D9FF1200D9CFE6FFE1CFD9FF050EE12604
:1003E000F90EDB50070B0BE1F90EDB50F80BE8427E
:1003F000E842E842E76E040EE7CFDBFF0BD0F90ED0
:10040000DB50F80BE842E842E842010FE76E040EC9
:10041000E7CFDBFF020EDB6A030EDB6A020EDBCFE7
:1004200020F0030EDBCF21F0040EDB50226E236A96
:100430002250205C235021584EE2FD0EDBCFE6FF18
:10044000FE0EDBCFE6FFC7DEE552E552DE6ADD6A6F
:10045000DECF20F0DDCF21F0FA0EDB50226E236AD2
:100460002250205C235021582EE2010EE66EDECF92
:1004700022F0DDCF23F0FA0EDB50246E256A020E47
:10048000DBCF08F0030EDBCF09F024C00DF025C050
:100490000EF04BEC06F022500624206E235007206D
:1004A000216EFB0EDB502024E96EFC0EDB50212078
:1004B000EA6EEF50E66E19D8E552E552DF2A010EDA
:1004C00001E3DB2AC5D7FD0EDB2A020EDB2A030E71
:1004D00001E3DB2AA3D7050EE15C02E2E16AE55203
:1004E000E16EE552E7CFD9FF1200D9CFE6FFE1CFA9
:1004F000D9FFE6528C9CFD0EDB5002E18C9A01D0B4
:100500008C8ADF6A080EDF5C0FE2FE0EDBAE02D0E3
:100510008C8801D08C988C96DB50020DFE0EF3CFA8
:10052000DBFF8C86DF2AEED78C8CE552E552E7CFD5
:10053000D9FF1200D9CFE6FFE1CFD9FF020EE126A5
:10054000E66AE66A48DEE552E552750EE66E5BDE67
:10055000E552DF6A040EDF5C29E2DFCFE6FF080E1A
:10056000E66E39DEE552E552010EE66EE668BDDF65
:10057000E552E552010EDB6ADB50206E216A020172
:100580002150F319E8AE02D0F33504D0F251205CCB
:10059000F351215809E2010EE66EE66AA6DFE55244
:1005A000E552010EDB2AE8D7DF2AD4D7040EE66E27
:1005B000080EE66E10DEE552E552010EE66EE668C4
:1005C00094DFE552E552DF6A460EDF5C09E2010E78
:1005D000E66E800EE66E89DFE552E552DF2AF4D73B
:1005E000050EE66EE66AF7DDE552E5524F0EE66E61
:1005F0000ADEE552050EE66E460EE66EECDDE552CD
:10060000E552740EE66EFFDDE552020EE15C02E299
:10061000E16AE552E16EE552E7CFD9FF1200D9CF8A
:10062000E6FFE1CFD9FFFD0EDBCF20F0FE0EDBCFE2
:1006300021F0D890215004E6080E205C000E2158CD
:1006400027E2040EE66EFB0EDB500201EE250001F0
:10065000206EFC0EDB500201EF210001216E090E1D
:100660002024E66EB8DDE552E552010EE66EFD0E81
:10067000DBCFE9FFFE0EDBCFEAFF600EE926000EBE
:10068000EA22EF508009E66E30DFE552E552D0D025
:10069000FD0EDBCF20F0FE0EDBCF21F0D8902150F5
:1006A00004E6100E205C000E21582AE2030EE66ECE
:1006B000FB0EDB500201EE250001206EFC0EDB502C
:1006C0000201EF210001216E090E2024E66E83DD78
:1006D000E552E552010EE66EFD0EDBCFE9FFFE0EA0
:1006E000DBCFEAFF080EE95E000EEA5A600EE9264B
:1006F000000EEA22EF50E66EF8DEE552E55298D0A1
:10070000FD0EDBCF20F0FE0EDBCF21F0D890215084
:1007100004E6180E205C000E21582AE2020EE66E56
:10072000FB0EDB500201EE250001206EFC0EDB50BB
:100730000201EF210001216E090E2024E66E4BDD3F
:10074000E552E552010EE66EFD0EDBCFE9FFFE0E2F
:10075000DBCFEAFF100EE95E000EEA5A600EE926D2
:10076000000EEA22EF50E66EC0DEE552E55260D0A0
:10077000FD0EDBCF20F0FE0EDBCF21F0D890215014
:1007800004E6200E205C000E21582AE2010EE66EDF
:10079000FB0EDB500201EE250001206EFC0EDB504B
:1007A0000201EF210001216E090E2024E66E13DD07
:1007B000E552E552010EE66EFD0EDBCFE9FFFE0EBF
:1007C000DBCFEAFF180EE95E000EEA5A600EE9265A
:1007D000000EEA22EF50E66E88DEE552E55228D0A0
:1007E000E66AFB0EDB500201EE250001206EFC0ED6
:1007F000DB500201EF210001216E090E2024E66E7C
:10080000EADCE552E552010EE66EFD0EDBCFE9FFB4
:10081000FE0EDBCFEAFF200EE95E000EEA5A600E04
:10082000E926000EEA22EF50E66E5FDEE552E55261
:10083000E552E7CFD9FF1200D9CFE6FFE1CFD9FFCC
:10084000920E0201F025E96E020EF121EA6EFD0E14
:10085000DBCFEFFFF1510201F319E8AE02D0F3351F
:1008600007D0F2510201F05D0201F3510201F1598A
:1008700014E2F0C2E6FFF1C2E6FF920E0201F0259B
:10088000E96E020EF121EA6EEF50E66EE66AC7DE0F
:10089000E552E552E552E5521DD04CDE2BD8F2C2AE
:1008A000F0F2F3C2F1F20201010EF05F000EF15B13
:1008B000F0C2E6FFF1C2E6FF920EF025E96E020EED
:1008C000F121EA6EEF50E66EE66AA9DEE552E552E6
:1008D000E552E5520201F02B000EF123ECC2E6FFD7
:1008E000EDC2E6FF15EC08F0E552E552E552E7CF20
:1008F000D9FF1200D9CFE6FFE1CFD9FFE652DF6A78
:10090000DF6ADF50206E216A02012150F319E8AE40
:1009100002D0F33504D0F251205CF351215824E287
:10092000DF28EA6A920FE96E020EEA22EF50E66EC5
:10093000DF50EA6A920FE96E020EEA22E552E750B2
:10094000EF6EDFCFE6FFE66ADF50EA6A920FE96EEC
:10095000020EEA22EF50E66EE66A61DEE552E552EB
:10096000E552E552DF2ACDD7E552E552E7CFD9FF70
:100970001200D9CFE6FFE1CFD9FF050EE66E1A0EC1
:10098000E66E29DCE552E552FD0EDBCF20F0FE0ECF
:10099000DBCF21F0E80E0D6E030E0E6E20C008F0C6
:1009A00021C009F025EC06F008C020F009C021F0B4
:1009B000300E2024E66E27DCE5522E0EE66E23DC98
:1009C000E552FD0EDBCF20F0FE0EDBCF21F0E80E6E
:1009D0000D6E030E0E6E20C008F021C009F025EC4C
:1009E00006F004C020F005C021F0640E0D6E0E6A02
:1009F00020C008F021C009F025EC06F008C020F066
:100A000009C021F0300E2024E66E03EC01F0E5521F
:100A1000FD0EDBCF20F0FE0EDBCF21F0640E0D6E5D
:100A20000E6A20C008F021C009F025EC06F004C0D1
:100A300020F005C021F00A0E0D6E0E6A20C008F0ED
:100A400021C009F025EC06F008C020F009C021F013
:100A5000300E2024E66E03EC01F0E552FD0EDBCFF4
:100A600020F0FE0EDBCF21F00A0E0D6E0E6A20C0C4
:100A700008F021C009F025EC06F004C020F005C004
:100A800021F0300E2024E66E03EC01F0E552560E04
:100A9000E66E03EC01F0E552E552E7CFD9FF120014
:100AA000019E08D0019E09AE05D0086C091EE86AB7
:100AB0000922018E09C003F008C002F0136A126A0D
:100AC0008E0E046E056AB4EF06F0016AF0EC06F0D3
:100AD00008EC07F001B698EF06F001A205D001BAC4
:100AE00098EF06F09FEF06F001BAABEF06F001A019
:100AF00005D001B898EF06F0ABEF06F001B89FEF14
:100B000006F0056A7F0E0A24046EE86A05220F507B
:100B1000045EE86A055A1A0E106E0A6A126A136AAF
:100B2000026A036A0C50075E0D50085A0E50095AAB
:100B3000000E0A5A09E70C5007260D5008220E50E5
:100B40000922000E0A2201D0128AD89007360836F0
:100B500009360A36D8901236133602360336102E6E
:100B6000E1D7095008100710D8A4128AB4EF06F094
:100B7000016AF0EC06F008EC07F001B698EF06F019
:100B800001A205D001B898EF06F09FEF06F001AA88
:100B900005D001B098EF06F09FEF06F001B002D04B
:100BA00001A802D0ABEF06F0056A0F500A24046ECC
:100BB000E86A05227E0E045EE86A055A126A136A24
:100BC000026A036A0E500902F4CF03F0F3CF02F079
:100BD0000D500902F3501326F4500222000E032296
:100BE0000E500802F3501326F4500222000E032286
:100BF0000C500902F3501226F4501322000E022268
:100C000003220D500802F3501226F4501322000E56
:100C1000022203220E500702F3501226F450132230
:100C2000000E022203220C500802F4501226000E7D
:100C30001322022203220D500702F4501226000E46
:100C4000132202220322B4EF06F0006A0EAE2EEF4A
:100C500006F00D6C0E1EE86A0E22001E09AE36EF7D
:100C600006F0086C091EE86A0922001EC7EC08F0AD
:100C700009BE46EF06F000AE000C086C091EE86ADB
:100C80000922046C051EE86A0522000C00BE3DEF37
:100C900006F00188FF0C08C012F008500D02F4CFD6
:100CA00007F0F3CF06F009500E02F4CF09F0F3CFAE
:100CB00008F00D02F3500726F4500822E86A0922D2
:100CC00012500E02F3500726F4500822E86A092257
:100CD000000C016AF0EC06F001B673EF06F001A219
:100CE0000ED001B405D07F0E096EFF0E086E1FD026
:100CF000800E096E086A1BD0096A086A18D001B014
:100D0000FBD78F0E0A60EDD77E0E0A64F5D78E0EE4
:100D10000A5C05E0D890093208320A2AF8D701A403
:100D200006D0086C091EE86A092209AEE5D7120050
:100D30007F0E0A6EFF0E096E086E076E12007F0EA0
:100D400001BEFF0E0A6E02D07F0E0A6E800E096E83
:100D5000086A076AF3D701AE04D0800E0A6E096AEA
:100D6000F7D70A6A096AF4D7035002101310121059
:100D7000F8E005BEF0D703BE0CD004500510EBE040
:100D8000D89012361336023603360406D8A005066C
:100D9000F2D70550D4E10428D2E012AE11D07F0E74
:100DA000121402E113A00CD0132AE86A02220322D3
:100DB00007E3D880033202321332042A0428BFE04A
:100DC0000450C9E013C007F002C008F00334096EF4
:100DD00004300A6E09320A9E01BE0A8E9EEF06F0AA
:100DE00009360A3602E30184017E06E101800A6ABF
:100DF000096A086A076A12000A2803E0D8800932E3
:100E00001200D890093202E101821200018612001C
:100E10000E360F3602E3018C017E06E101880F6A6F
:100E20000E6A0D6A0C6A12000F2803E0D8800E3299
:0C0E30001200D8900E32EAE1018A120094
:040E3C0092680E0E9C
:100E4000C16EC26ABA0EC06EC2809E9C9D8CF28E2C
:100E5000F28C050EE66EE66A15EC08F0E552E552F6
:100E6000C2821200D8CFE4FFE0CFE4FFE46EDACF15
:100E7000E4FFE2CFDAFFE9CFE4FFEACFE4FFF6CF09
:100E8000E4FFF7CFE4FFF3CFE4FFF4CFE4FFFACFC2
:100E9000E4FF00EE00F0140EE80403E3EECFE4FFFD
:100EA000FBD7E652D9CFE6FFE1CFD9FF060EE12608
:100EB0009EAC93D09E9CC450E66ED950040FE96E50
:100EC000DACFEAFFE552E750EE6EED6A040EDBCFB3
:100ED00014F0050EDBCF15F014C015F0146AC350E2
:100EE00002011410906F15C091F290C208F091C2E7
:100EF00009F050EC05F007C0DEFF08C0DEFF09C0B6
:100F0000DEFF0AC0DDFFDD52DD52D9CFE9FFDACFC7
:100F1000EAFFEECF1CF0EECF1DF0EECF1EF0EFCFCC
:100F20001FF0330E0C6E0D6E530E0E6E400E0F6ED4
:100F30001CC007F01DC008F01EC009F01FC00AF059
:100F4000B8EC05F007C018F008C019F009C01AF095
:100F50000AC01BF00C6AC00E0D6E7F0E0E6E440EA2
:100F60000F6E18C007F019C008F01AC009F01BC0B6
:100F70000AF065EC05F007C014F008C015F009C0D0
:100F800016F00AC017F00C6A0D6A7A0E0E6E440E47
:100F90000F6E14C007F015C008F016C009F017C096
:100FA0000AF0B8EC05F007C0DEFF08C0DEFF09C09C
:100FB000DEFF0AC0DDFFDD52DD52DECF07F0DECFFF
:100FC00008F0DECF09F0DDCF0AF0DD52DD5269EC2A
:100FD00006F008C090F209C091F2060EE15C02E250
:100FE000E16AE552E16EE552E7CFD9FFE55200EE46
:100FF00013F0140EE80403E3E5CFEDFFFBD7E5CFD4
:10100000FAFFE5CFF4FFE5CFF3FFE5CFF7FFE5CF3C
:10101000F6FFE5CFEAFFE5CFE9FFE5CFDAFFE550E0
:0A102000E5CFE0FFE5CFD8FF100098
:06102A00D9CFE6FFE1CF83
:10103000D9FF020EE126FD0EDBCF20F0FE0EDBCF46
:1010400021F0213404E220500008000E215419E25E
:10105000DE6ADD6ADECF20F0DDCF21F0D8902150AE
:1010600004E67B0E205C000E215805E2DF2A010E0B
:1010700001E3DB2AEFD7FD0EDB06FE0E01E2DB0605
:10108000DAD7020EE15C02E2E16AE552E16EE55276
:10109000E7CFD9FF1200956A8BEC00F0B9EC00F0B5
:1010A0009AEC02F01EEC07F0C28290C220F091C2CE
:1010B00021F0640E0D6E0E6A20C008F021C009F008
:1010C000C7EC08F008C020F009C021F020C0E6FFFE
:1010D00021C0E6FF1CEC04F0E552E55290C2E6FFA9
:1010E00091C2E6FFB9EC04F0E552E552DDD71200FB
:1010F0002A0EF66E000EF76E000EF86E0201090061
:10110000F550E76F0900F550E86F03E1E76701D09C
:101110003DD00900F550E26F0900F550E36F09007A
:10112000F550E46F09000900F550E96E0900F5502B
:10113000EA6E090009000900F550E56F0900F55055
:10114000E66F09000900F6CFE9F2F7CFEAF2F8CF2F
:10115000EBF2E2C2F6FFE3C2F7FFE4C2F8FF0201DE
:10116000E55302E1E65307E00900F550EE6EE507AE
:10117000F8E2E607F9D7E9C2F6FFEAC2F7FFEBC2E9
:0E118000F8FF0201E707000EE85BBFD7120080
:02118E00056AF0
:10119000046A100EE76ED890083609360436053614
:1011A0000D50045C0E50055805E30D50045E0E50C2
:0A11B000055A082AE72EF0D71200B6
:0611BA0015EE00F025EE29
:1011C00000F0F86A019C78EC08F0EBEC08F04BECCE
:0611D00008F0FBD712003D
:0211D600120005
:0811D800C800000000003C000B
:1011E0008040201008040201000000000000000000
:1011F000002F000000000700070000147F147F1478
:1012000000242A7F2A1200626408132300364955FD
:10121000225000000503000000001C2241000000D5
:1012200041221C000014083E08140008083E08086B
:10123000000000A0600000080808080800006060C6
:101240000000002010080402003E5149453E000005
:10125000427F4000004261514946002141454B31E7
:10126000001814127F10002745454539003C4A49B3
:101270004930000171090503003649494936000625
:101280004949291E0000363600000000563600008D
:101290000008142241000014141414140000412208
:1012A000140800020151090600324959513E007CE0
:1012B0001211127C007F49494936003E41414122CA
:1012C000007F4141221C007F49494941007F0909B3
:1012D0000901003E4149497A007F0808087F000063
:1012E000417F4100002040413F01007F081422411E
:1012F000007F40404040007F020C027F007F0408D6
:10130000107F003E4141413E007F09090906003E31
:101310004151215E007F091929460046494949315A
:101320000001017F0101003F4040403F001F20407D
:10133000201F003F4038403F00631408146300073B
:101340000870080700615149454300007F41410092
:1013500000552A552A55000041417F000004020132
:101360000204004040404040000001020400002010
:1013700054545478007F484444380038444444204E
:1013800000384444487F00385454541800087E09FB
:1013900001020018A4A4A47C007F080404780000C3
:1013A000447D4000004080847D00007F1028440080
:1013B0000000417F4000007C04180478007C080491
:1013C000047800384444443800FC242424180018CD
:1013D000242418FC007C08040408004854545420B9
:1013E00000043F444020003C4040207C001C204042
:1013F000201C003C4030403C004428102844001C85
:10140000A0A0A07C004464544C441414141414147C
:00000001FF
