:020000040000FA
:06000000D5EF07F012002D
:020006001200E6
:06001800CFEF06F012001C
:02001E000200DE
:100020000D1000006000000083000000F80F0000C9
:08003000E300000015000000D0
:08003800956A946A1F0E936E95
:100040008188819A63EC06F0F3CF14F0F4CF15F0B9
:1000500014C0E6FF15C0E6FF04D8E552E552F2D71A
:100060001200D9CFE6FFE1CFD9FF090EE126DF6A02
:10007000010EDB6A020EDB6A030EDB6A040EDB6A2A
:10008000FD0EDBCF14F0FE0EDBCF15F0153404E2CD
:1000900014500008000E155401E377D1FD0EDBCF9C
:1000A00008F0FE0EDBCF09F029EC03F0050E07C0C7
:1000B000DBFF060E08C0DBFF070E09C0DBFF080EE2
:1000C0000AC0DBFF050EDBCF1CF0060EDBCF1DF0F8
:1000D000070EDBCF1EF0080EDBCF1FF00C6A0D6A97
:1000E000800E0E6E3D0E0F6E1CC007F01DC008F096
:1000F0001EC009F01FC00AF0D3EC03F007C018F0CF
:1001000008C019F009C01AF00AC01BF00C6A0D6A89
:10011000C80E0E6E420E0F6E18C007F019C008F020
:100120001AC009F01BC00AF0D3EC03F007C014F0AA
:1001300008C015F009C016F00AC017F00C6A0D6A65
:100140000E6A3F0E0F6E14C007F015C008F016C0FF
:1001500009F017C00AF03DEC03F066EC04F0FD0E68
:1001600008C0DBFFFE0E09C0DBFFFD0EDBCF14F085
:10017000FE0EDBCF15F0100E0D6E270E0E6E14C0A6
:1001800008F015C009F040EC04F004C014F005C0FC
:1001900015F0E80E0D6E030E0E6E14C008F015C0BB
:1001A00009F040EC04F008C014F009C015F0145038
:1001B000DF6EFD0EDBCF14F0FE0EDBCF15F0E80E88
:1001C0000D6E030E0E6E14C008F015C009F040EC61
:1001D00004F004C014F005C015F0640E0D6E0E6A34
:1001E00014C008F015C009F040EC04F008C014F089
:1001F00009C015F0010E14C0DBFFFD0EDBCF14F0BB
:10020000FE0EDBCF15F0640E0D6E0E6A14C008F002
:1002100015C009F040EC04F004C014F005C015F05E
:100220000A0E0D6E0E6A14C008F015C009F040ECFD
:1002300004F008C014F009C015F0020E14C0DBFF72
:10024000FD0EDBCF14F0FE0EDBCF15F00A0E0D6EA7
:100250000E6A14C008F015C009F040EC04F004C0A8
:1002600014F005C015F0030E14C0DBFFDF50EA6A7E
:10027000E30FE96E000EEA22EF50836E800E826E6D
:10028000010EE66EE66A1BEC05F0E552E552836866
:10029000826A010EE66EE66A1BEC05F0E552E55255
:1002A000010EDB50EA6AEE0FE96E000EEA22EF5013
:1002B000836E400E826E010EE66EE66A1BEC05F060
:1002C000E552E5528368826A010EE66EE66A1BEC2F
:1002D00005F0E552E552020EDB50EA6AE30FE96EE3
:1002E000000EEA22EF50836E200E826E010EE66E43
:1002F000E66A1BEC05F0E552E5528368826A010E5E
:10030000E66EE66A1BEC05F0E552E552030EDB50A3
:10031000EA6AE30FE96E000EEA22EF50836E100ED8
:10032000826E010EE66EE66A1BEC05F0E552E552C0
:100330008368826A010EE66EE66A1BEC05F0E55200
:10034000E552FD0EDBCF14F0FE0EDBCF15F01534B9
:1003500004E2145080080C0E155414E2FD0EDBCF9D
:1003600016F0FE0EDBCF17F0D890175004E6400EC3
:10037000165C1F0E175806E2F4EC06F0938881888D
:10038000D59E02D09388818858D1FD0EDBCF14F022
:10039000FE0EDBCF15F01406000E155AFD0E14C02C
:1003A000DBFFFE0E15C0DBFFFD0EDB1C146EFE0E28
:1003B000DB1C156EFD0E14C0DBFFFE0E15C0DBFF4F
:1003C000FD0EDBCF08F0FE0EDBCF09F029EC03F0C9
:1003D000050E07C0DBFF060E08C0DBFF070E09C0D5
:1003E000DBFF080E0AC0DBFF050EDBCF1CF0060E9C
:1003F000DBCF1DF0070EDBCF1EF0080EDBCF1FF0AA
:100400000C6A0D6A800E0E6E3D0E0F6E1CC007F05A
:100410001DC008F01EC009F01FC00AF0D3EC03F0A5
:1004200007C018F008C019F009C01AF00AC01BF084
:100430000C6A0D6AC80E0E6E420E0F6E18C007F0E1
:1004400019C008F01AC009F01BC00AF0D3EC03F081
:1004500007C014F008C015F009C016F00AC017F064
:100460000C6A0D6A0E6A3F0E0F6E14C007F015C0BD
:1004700008F016C009F017C00AF03DEC03F066EC76
:1004800004F0FD0E08C0DBFFFE0E09C0DBFFFD0E11
:10049000DBCF14F0FE0EDBCF15F0100E0D6E270E25
:1004A0000E6E14C008F015C009F040EC04F004C052
:1004B00014F005C015F0E80E0D6E030E0E6E14C09C
:1004C00008F015C009F040EC04F008C014F009C0B1
:1004D00015F01450DF6EFD0EDBCF14F0FE0EDBCFF7
:1004E00015F0E80E0D6E030E0E6E14C008F015C068
:1004F00009F040EC04F004C014F005C015F0640EDF
:100500000D6E0E6A14C008F015C009F040EC04F03E
:1005100008C014F009C015F0010E14C0DBFFFD0E79
:10052000DBCF14F0FE0EDBCF15F0640E0D6E0E6AFD
:1005300014C008F015C009F040EC04F004C014F039
:1005400005C015F00A0E0D6E0E6A14C008F015C035
:1005500009F040EC04F008C014F009C015F0020ED8
:1005600014C0DBFF0A0EDB50EA6AE30FE96E000EEF
:10057000EA22EF50836E7F0E826E010EE66EE66A0F
:100580001BEC05F0E552E55283688268010EE66EC9
:10059000E66A1BEC05F0E552E552DF50EA6AE30F2C
:1005A000E96E000EEA22EF50836EBF0E826E010EDE
:1005B000E66EE66A1BEC05F0E552E5528368826858
:1005C000010EE66EE66A1BEC05F0E552E552010EFF
:1005D000DB50EA6AEE0FE96E000EEA22EF50836EFE
:1005E000DF0E826E010EE66EE66A1BEC05F0E55248
:1005F000E55283688268010EE66EE66A1BEC05F040
:10060000E552E552020EDB50EA6AE30FE96E000E96
:10061000EA22EF50836EEF0E826E010EE66EE66AFE
:100620001BEC05F0E552E55283688268010EE66E28
:10063000E66A1BEC05F0E552E552090EE15C02E2C8
:0E064000E16AE552E16EE552E7CFD9FF120004
:02064E00019E0B
:1006500008D0019E09AE05D0086C091EE86A09227F
:10066000018E09C003F008C002F0136A126A8E0EF0
:10067000046E056AB1EF04F00F7E016AEDEC04F040
:1006800005EC05F001B695EF04F001A20AD001AA2D
:1006900003D001BE95EF04F001A4A1EF04F09EEF9A
:1006A00004F001AA05D001ACA1EF04F09EEF04F024
:1006B00001A00AD001A808D001BE04D001A402D034
:1006C000AAEF04F0AEEF04F0126A056A0F500A5C5C
:1006D000116E10E307C013F008C002F009C003F068
:1006E0000AC010F00CC007F00DC008F00EC009F0F1
:1006F000013A09D00CC013F00DC002F00EC003F097
:100700000FC010F0116C019E01BC018E10C004F0EE
:1007100001B0DDEF04F01A0E1160DDEF04F0046AA1
:100720000A6A01A408D0076C081E091E0A1EE86A9E
:10073000082209220A2201AC08D0136C021E031EF3
:10074000041EE86A022203220422066A115207E00C
:100750000A340932083207320632112EF9D707500F
:10076000132608500222095003220A50042206C010
:1007700012F0019E04AE0BD0126C131E021E031E5B
:10078000041EE86A1322022203220422018E04A01E
:1007900006D0D8800332023213321232102A10C02F
:1007A00004F0B1EF04F0016AEDEC04F005EC05F0A3
:1007B00001B695EF04F001A205D001B895EF04F061
:1007C0009CEF04F001AA05D001B095EF04F09CEF76
:1007D00004F001B002D001A802D0A8EF04F0056A2D
:1007E0000F500A24046EE86A05227E0E045EE86A51
:1007F000055A126A136A026A036A0E500902F4CF9C
:1008000003F0F3CF02F00D500902F3501326F45019
:100810000222000E03220E500802F3501326F45059
:100820000222000E03220C500902F3501226F4504B
:100830001322000E022203220D500802F35012264A
:10084000F4501322000E022203220E500702F3502E
:100850001226F4501322000E022203220C5008022A
:10086000F4501226000E1322022203220D5007021A
:10087000F4501226000E132202220322B1EF04F0DC
:10088000006A0EAE49EF04F00D6C0E1EE86A0E22EF
:10089000001E09AE51EF04F0086C091EE86A092237
:1008A000001E9FEC07F009BE61EF04F000AE000CE3
:1008B000086C091EE86A0922046C051EE86A052214
:1008C000000C00BE58EF04F00188FF0C016AEDEC4B
:1008D00004F001B670EF04F001A20ED001B405D00F
:1008E0007F0E096EFF0E086E1FD0800E096E086A1B
:1008F0001BD0096A086A18D001B0FBD78F0E0A60B6
:10090000EDD77E0E0A64F5D78E0E0A5C05E0D8900E
:10091000093208320A2AF8D701A406D0086C091E49
:10092000E86A092209AEE5D712007F0E0A6EFF0EB3
:10093000096E086E076E12007F0E01BEFF0E0A6E72
:1009400002D07F0E0A6E800E096E086A076AF3D71E
:1009500001AE04D0800E0A6E096AF7D70A6A096AE6
:10096000F4D70350021013101210F8E005BEF0D7B0
:1009700003BE0CD004500510EBE0D89012361336AD
:10098000023603360406D8A00506F2D70550D4E196
:100990000428D2E012AE11D07F0E121402E113A08F
:1009A0000CD0132AE86A0222032207E3D88003321C
:1009B00002321332042A0428BFE00450C9E013C0F5
:1009C00007F002C008F00334096E04300A6E0932E1
:1009D0000A9E01BE0A8E9BEF04F009360A3602E336
:1009E0000184017E06E101800A6A096A086A076AD1
:1009F00012000A2803E0D88009321200D890093288
:100A000002E101821200018612000E360F3602E367
:100A1000018C017E06E101880F6A0E6A0D6A0C6A7C
:100A200012000F2803E0D8800E321200D8900E3248
:060A3000EAE1018A120058
:0A0A3600D9CFE6FFE1CFD9FF040E8F
:100A4000E66EB5EC07F0E552FD0EDB06DBCF14F0E9
:100A5000FE0E01E2DB06DBCF15F014501510EFE1BE
:100A6000E552E7CFD9FF1200D9CFE6FFE1CFD9FF9A
:100A7000FD0EDBCF14F0DB06FE0EDBCF15F001E23E
:100A8000DB061450151001E0F3D7E552E7CFD9FF8C
:100A90001200D9CFE6FFE1CFD9FF020EE126D950EF
:100AA000FD0FE96EFF0EDA20EA6E000ED880EE54DC
:100AB000000EED5418E26E0EDE6EDD6AD9CFE9FF4E
:100AC000DACFEAFF000ED880EE54000EED5405E2B6
:100AD000DF06010E01E2DB06F1D7FD0EDB06FE0E9E
:100AE00001E2DB06DCD7020EE15C02E2E16AE552DC
:100AF000E16EE552E7CFD9FF1200D9CFE6FFE1CF93
:100B0000D9FF020EE126939A0000819A030EE66E49
:100B1000B5EC07F0E552818ADE6ADD6A938A81AA24
:100B200011D0DF2A010E01E3DB2AD9CFE9FFDACFAA
:100B3000EAFF880ED880EE54130EED5402E2000E48
:100B400003D0EDD7010E00D0146E020EE15C02E27C
:100B5000E16AE552E16E1450E552E7CFD9FF120089
:100B6000D9CFE6FFE1CFD9FF040EE126939A020E1A
:100B7000DB6A030EDB6A020EDBCF14F0030EDBCF61
:100B800015F0080E145C000E155824E2819A00003E
:100B9000000000000000FE0EDB50010BE8B0818A6F
:100BA000E8A0819A030EE66EE3EC07F0E552818A35
:100BB0000000000000000000FE0EDBCFF3FFF3900A
:100BC000F342FE0EF3CFDBFF020EDB2A030E01E33E
:100BD000DB2AD1D7040EE15C02E2E16AE552E16E64
:100BE000E552E7CFD9FF1200D9CFE6FFE1CFD9FF19
:100BF000060EE126080EF36E040EF3CFDBFF050EA2
:100C0000DB6AD950040FE96EDACFEAFF000ED88014
:100C1000EE54000EED5429E2939A819A00000000F0
:100C200000000000818A030EE66EF1EC07F0E55249
:100C3000938A8150200B01E0010EE76E010EE7CF91
:100C4000DBFF010EDB50800DF3CF14F0DF407F0B94
:100C50001410DF6E020EE66EE3EC07F0E552040EB0
:100C6000DB06050E01E2DB06CCD7DF5000D0146EA8
:100C7000060EE15C02E2E16AE552E16E1450E552D3
:100C8000E7CFD9FF120039DF010EE66EE66AD3DE48
:100C9000E552E552CC0EE66E63DFE552440EE66E99
:100CA0005FDFE552120029DF010EE66EE66AC3DE61
:100CB000E552E552CC0EE66E53DFE552BE0EE66E0F
:100CC0004FDFE5521200D9CFE6FFE1CFD9FF040E86
:100CD000E126DE6ADD6AD7DFE6DF86DFE76E030E38
:100CE000E7CFDBFF81DFE76E020EE7CFDBFFDB50F4
:100CF000DE6EDD6AD9CFE9FFDACFEAFFEE50ED6EA6
:100D0000EF6A030EDB50DF12DECF14F0DDCF15F0FB
:100D100014C0F3FF15C0F4FF040EE15C03E200D041
:0E0D2000E16AE552E16EE552E7CFD9FF12001D
:020D2E00D9CF1B
:100D3000E6FFE1CFD9FF050EE126DF6A120EDF5C88
:100D400023E2010EDB6A020EDB6A030EDB6A040E8D
:100D5000DB6AD950010FE96EDACFEAFF400EEE5C94
:100D60001F0EEE58000EEE58000EEE580BE2D95052
:100D7000010FE96EDACFEAFFEE2A000EEE22EE2234
:100D8000EE22E7D7DF2ADAD7D59E050EE15C02E234
:100D9000E16AE552E16EE552E7CFD9FF1200D8CF04
:100DA000E4FFE0CFE4FFE46EDACFE4FFE2CFDAFF66
:100DB000E652F294D59E8178F8C0D7FFF9C0D6FFED
:100DC000D58EE552E5CFDAFFE550E5CFE0FFE5CF80
:100DD000D8FF1000F8C0D7FFF9C0D6FFD58EFAC0F3
:100DE000E6FFA5DFE5521200D9CFE6FFE1CFD9FF3C
:100DF000020EE12693988198F28EF28CF28AF29498
:100E0000D58E080ED56E010EDB6A4B0EF36E010E09
:100E1000DBCFF4FFF350F45C39E2010EDB28EA6A21
:100E2000600FE96E000EEA22EF50070DF3CF14F0C9
:100E3000010EDB50EA6A600FE96E000EEA22EF5005
:100E40001424FF0FDF6EDF50EA6AAB0FE96E000E6D
:100E5000EA22EFCFF8F0DF50EA6AC70FE96E000E22
:100E6000EA22EFCFF9F0010EDB50020FEA6A600FC1
:100E7000E96E000EEA22EFCFFAF0010EDB50030F0D
:100E8000E76E010EE7CFDBFFA5DFBFD7020EE15C07
:100E900002E2E16AE552E16EE552E7CFD9FF1200C6
:100EA0001E0EF66E000EF76E000EF86E01010900C0
:100EB000F550056F0900F550066F03E1056701D095
:100EC0003DD00900F550006F0900F550016F090091
:100ED000F550026F09000900F550E96E0900F55060
:100EE000EA6E090009000900F550036F0900F5508A
:100EF000046F09000900F6CF07F1F7CF08F1F8CF2A
:100F000009F100C1F6FF01C1F7FF02C1F8FF0101BD
:100F1000035302E1045307E00900F550EE6E0307A6
:100F2000F8E20407F9D707C1F6FF08C1F7FF09C1C6
:0E0F3000F8FF01010507000E065BBFD7120097
:020F3E00056A42
:100F4000046A100EE76ED890083609360436053666
:100F50000D50045C0E50055805E30D50045E0E5014
:0A0F6000055A082AE72EF0D7120008
:060F6A00FF0EE350206EB3
:100F7000480E01D04C0EE76EE72EFED7E76AE72E4B
:0A0F8000FED7202EF7D70000120064
:060F8A00000EF36E00EE04
:100F900000F0060E01D81200EA6002D0EE6AFCD71B
:0A0FA000F350E9601200EE6AFCD77E
:060FAA0015EE00F025EE3B
:100FB00000F0F86A019C50EC07F003EC00F01CEC28
:060FC00000F0FBD7120057
:0A0FC600FF0EE350206E1B0E00D05A
:100FD00001D0200EE76EE72EFED7202EFAD700D0E4
:020FE0001200FD
:0E0FE200FF0EE350E84E1200000000D000D0D9
:080FF00000D0E82EFAD7120030
:080FF800039F250D9949411FDB
:0D1000000109FD029E240C9848C01E000846
:03100D00050101D9
:1010100005010106010205010201020207010405A2
:10102000010105010106010205010202020201029D
:101030000405010105010105020203020201020289
:101040000701020601020402010402010302020177
:101050000202020202010204F2F3F5F5F6F7F8F9D2
:10106000F9FAFAFBFBFCFCFCFDFDFDFDFEFEFEFEBD
:10107000FEFEFEFF42C117B6D0D1B621E18CD86882
:10108000E95B8FEE446BB4F42D4777A2B6DAFA161B
:00000001FF
