:020000040000FA
:06000000E3EF06F0120020
:0600180000EF03F01200EE
:06002A000200F00D0000D1
:100030006000000028020000E40D000096020000AD
:040040000C000000B0
:0C004400040E936E7F6A050EBA6EB90EB2
:10005000B16EF28EF28CA080A190A082A1921200CB
:10006000956AC5EC03F0F3EC03F004D8EBDF02D89B
:10007000FED7120002019C519D1148E0050EBA6E98
:1000800090C217F091C218F0196A146A090E156E21
:100090003D0E166E14C007F015C008F016C009F02A
:1000A00017C00CF018C00DF019C00EF0D4EC05F01C
:1000B00007C092F208C093F209C094F2080E0C6EC9
:1000C0000D6A0E6A92C207F093C208F094C209F05A
:1000D000D4EC05F007C092F208C093F209C094F284
:1000E0000201956B94BF95699535000E951909E647
:1000F000D880E80E9255030E9355000E9455000ECD
:10010000955503E202019C6B9D6BC2D0070EBA6E3F
:1001100090C218F091C219F01A6A1B6A146A900E04
:10012000156ED00E166E030E176E14C006F015C0B5
:1001300007F016C008F017C009F018C00BF019C07E
:100140000CF01AC00DF01BC00EF001EC06F006C05A
:1001500092F207C093F208C094F209C095F2080E1B
:100160000B6E0C6A0D6A0E6A92C206F093C207F01B
:1001700094C208F095C209F001EC06F006C092F2B4
:1001800007C093F208C094F209C095F20201050E6F
:10019000965D000E97590EE20201905102019E27D2
:1001A0000201915102019F23000EA023A123962B4F
:1001B000972355D0050E0B6E0C6A0D6A0E6A9EC20F
:1001C00006F09FC207F0A0C208F0A1C209F001EC3E
:1001D00006F006C09EF207C09FF208C0A0F209C058
:1001E000A1F2146A090E156E3D0E166E176A14C040
:1001F00006F015C007F016C008F017C009F09EC23F
:100200000BF09FC20CF0A0C20DF0A1C20EF001ECE9
:1002100006F006C092F207C093F208C094F209C03B
:1002200095F2080E0B6E0C6A0D6A0E6A92C206F009
:1002300093C207F094C208F095C209F001EC06F0F1
:1002400006C092F207C093F208C094F209C095F27A
:100250000201966B976B9E6B9F6BA06BA16B02016B
:100260009535000E951909E6D880E80E9255030ED3
:100270009355000E9455000E95550AE3010E0201A8
:100280009C6F9D6B9E6B9F6BA06BA16B966B976B2E
:10029000020EE66E180EE66E25EC04F0E552E5520D
:1002A00092C214F093C215F094C216F095C217F0E2
:1002B000400E0B6E420E0C6E0F0E0D6E0E6A14C0C9
:1002C00006F015C007F016C008F017C009F001ECE1
:1002D00006F006C014F007C015F008C016F009C0FB
:1002E00017F0300E1426000E152216221722145075
:1002F000E66E3DEC04F0E55292C214F093C215F0A4
:1003000094C216F095C217F0400E0B6E420E0C6EA2
:100310000F0E0D6E0E6A14C006F015C007F016C061
:1003200008F017C009F001EC06F002C014F003C099
:1003300015F004C016F005C017F0A00E0B6E860E67
:100340000C6E010E0D6E0E6A14C006F015C007F09B
:1003500016C008F017C009F001EC06F006C014F052
:1003600007C015F008C016F009C017F0300E1426AB
:10037000000E1522162217221450E66E3DEC04F0F2
:10038000E55292C214F093C215F094C216F095C2D1
:1003900017F0A00E0B6E860E0C6E010E0D6E0E6A1F
:1003A00014C006F015C007F016C008F017C009F019
:1003B00001EC06F002C014F003C015F004C016F002
:1003C00005C017F0100E0B6E270E0C6E0D6A0E6A2C
:1003D00014C006F015C007F016C008F017C009F0E9
:1003E00001EC06F006C014F007C015F008C016F0C6
:1003F00009C017F0300E1426000E152216221722FF
:100400001450E66E3DEC04F0E55292C214F093C233
:1004100015F094C216F095C217F0100E0B6E270E51
:100420000C6E0D6A0E6A14C006F015C007F016C0F7
:1004300008F017C009F001EC06F002C014F003C088
:1004400015F004C016F005C017F0E80E0B6E030E91
:100450000C6E0D6A0E6A14C006F015C007F016C0C7
:1004600008F017C009F001EC06F006C014F007C050
:1004700015F008C016F009C017F0300E1426000E53
:100480001522162217221450E66E3DEC04F0E552B8
:1004900092C214F093C215F094C216F095C217F0F0
:1004A000E80E0B6E030E0C6E0D6A0E6A14C006F099
:1004B00015C007F016C008F017C009F001EC06F0EF
:1004C00002C014F003C015F004C016F005C017F008
:1004D000640E0B6E0C6A0D6A0E6A14C006F015C02D
:1004E00007F016C008F017C009F001EC06F006C0CE
:1004F00014F007C015F008C016F009C017F0300E50
:100500001426000E1522162217221450E66E3DEC1A
:1005100004F0E55292C214F093C215F094C216F0A2
:1005200095C217F0640E0B6E0C6A0D6A0E6A14C049
:1005300006F015C007F016C008F017C009F001EC6E
:1005400006F002C014F003C015F004C016F005C098
:1005500017F00A0E0B6E0C6A0D6A0E6A14C006F0D4
:1005600015C007F016C008F017C009F001EC06F03E
:1005700006C014F007C015F008C016F009C017F047
:10058000300E1426000E1522162217221450E66E85
:100590003DEC04F0E55292C214F093C215F094C2FF
:1005A00016F095C217F00A0E0B6E0C6A0D6A0E6AF1
:1005B00014C006F015C007F016C008F017C009F007
:1005C00001EC06F002C014F003C015F004C016F0F0
:1005D00005C017F0300E1426000E15221622172221
:1005E0001450E66E3DEC04F0E552480EE66E3DEC2C
:1005F00004F0E5527A0EE66E3DEC04F0E55212008E
:10060000D8CFE4FFE0CFE4FFE46EDACFE4FFE2CF3F
:10061000DAFFE652A1A045D0A1900201982B000E6E
:10062000992398C21CF099C21DF000011D6A010EA9
:100630001C161C1801E11D5010E1BB500201886F0F
:10064000896BBC508A6F8B6B8AC21DF01C6A1C5070
:1006500088118C6F1D5089118D6F98C21CF099C242
:100660001DF000011D6A010E1C161C501D1019E121
:100670000201986B996BBB500201886F896BBC506B
:100680008A6F8B6B8AC21DF01C6A1C5088118E6F9A
:100690001D5089118F6F8C518E5D906F8D518F59C8
:1006A000916FA1B2A192E552E5CFDAFFE550E5CF17
:0806B000E0FFE5CFD8FF1000C8
:0806B800D9CFE6FFE1CFD9FF25
:1006C000020EE126DE6ADD6ADECF14F0DDCF15F022
:1006D000E80E145C030E155805E2DF2A010E01E353
:1006E000DB2AF2D7020EE15C02E2E16AE552E16E3A
:1006F000E552E7CFD9FF1200D9CFE6FFE1CFD9FF0E
:10070000020EE126DE6ADD6ADECF14F0DDCF15F0E1
:10071000740E145C040E155805E2DF2A010E01E385
:10072000DB2AF2D7020EE15C02E2E16AE552E16EF9
:10073000E552E7CFD9FF1200D9CFE6FFE1CFD9FFCD
:10074000020EE126DE6ADD6ADE6ADD6ADECF14F0C3
:10075000DDCF15F0FD0EDBCF16F0FE0EDBCF17F070
:100760001650145C1750155806E2C6DFDF2A010E3A
:1007700001E3DB2AEBD7020EE15C02E2E16AE5521B
:10078000E16EE552E7CFD9FF12008C9E95DF8C8E8B
:100790008C9C92DF8C8C90DFE66A210EE66EDFD9AE
:1007A000E552E552E66AC80EE66ED9D9E552E55241
:1007B000E66A060EE66ED3D9E552E552E66A130EF6
:1007C000E66ECDD9E552E552E66A200EE66EC7D94F
:1007D000E552E55208D8E66A0C0EE66EC0D9E5523D
:1007E000E5528C9C1200D9CFE6FFE1CFD9FF020E73
:1007F000E126E66A0C0EE66EB2D9E552E552E66AEB
:10080000800EE66EACD9E552E552DE6ADD6ADECFD7
:1008100014F0DDCF15F0F80E145C010E15580BE244
:10082000010EE66EE66A9BD9E552E552DF2A010E1B
:1008300001E3DB2AECD7020EE15C02E2E16AE55259
:10084000E16EE552E7CFD9FF1200D9CFE6FFE1CF45
:10085000D9FFE66AFD0EDB504009E66E80D9E5520D
:10086000E552E66AFE0EDB508009E66E78D9E55265
:10087000E552E552E7CFD9FF1200D9CFE6FFE1CF2D
:10088000D9FFE652200E146EFE0EDBCFE7FF1450A8
:10089000E75EFE0EE7CFDBFFDF6A060EDF5C1BE2E2
:1008A000010EE66EFE0EDB50060DF3CF14F0F4CF12
:1008B00015F0600E1426000E1522DF500F011424CF
:1008C000E96E000E1520EA6EEF50E66E48D9E5524B
:1008D000E552DF2AE2D7E552E552E7CFD9FF120011
:1008E000D9CFE6FFE1CFD9FFFD0EDBCFE6FFFE0E4D
:1008F000DBCFE6FFAADFE552E552FB0EDBCFE9FFD7
:10090000FC0EDBCFEAFFEF5010E0FB0EDBCFE9FF80
:10091000FC0EDBCFEAFFEF50E66EAFDFE552FB0ED9
:10092000DB2AFC0E01E3DB2AE8D7E552E7CFD9FF4B
:100930001200D9CFE6FFE1CFD9FF020EE126FD0E6E
:10094000DBCFE6FFFE0EDBCFE6FF7FDFE552E552B1
:10095000DF6AFB0EDB50DF5C6DE2010EDB6AFC0E32
:10096000DB50E824F36E010EDBCFF4FFF350F45CB0
:100970004AE2FC0EDB50F36E010EDB50F35C21E12A
:10098000DF500AE1FD0EDB28E66EFE0EDBCFE6FF50
:100990005CDFE552E55215D0FD0EDB28E66EFE0E5B
:1009A000DBCFE6FFF90EDBCFE6FFFC0EDB50E552B6
:1009B000E724DF02F350E552E724E66E46DFE55216
:1009C000E552010EE66EF70EDBCF16F0F80EDBCF28
:1009D00017F0FA0EDB50DF241A0D1650F324146EB4
:1009E0001750F420156E010EDB500F011424E96E30
:1009F000000E1520EA6EEF50E66EB1D8E552E552D2
:100A0000010EDB2AACD7DF2AFD0EDBCFE6FFFE0EA0
:100A1000DBCFE6FFF90EDBCFE6FFFC0EDB50E55245
:100A2000E724DF02F350E552E724E66E0EDFE552DD
:100A3000E5528FD7020EE15C02E2E16AE552E16E17
:100A4000E552E7CFD9FF1200D9CFE6FFE1CFD9FFBA
:100A5000050EE126F90EDB50070B0BE1F90EDB501A
:100A6000F80BE842E842E842E76E040EE7CFDBFF0E
:100A70000BD0F90EDB50F80BE842E842E842010FD8
:100A8000E76E040EE7CFDBFF020EDB6A030EDB6AC4
:100A9000020EDBCF14F0030EDBCF15F0040EDB509B
:100AA000166E176A1650145C175015584EE2FD0E5C
:100AB000DBCFE6FFFE0EDBCFE6FFC7DEE552E552F9
:100AC000DE6ADD6ADECF14F0DDCF15F0FA0EDB5002
:100AD000166E176A1650145C175015582EE2010E48
:100AE000E66EDECF16F0DDCF17F0FA0EDB50186E93
:100AF000196A020EDBCF08F0030EDBCF09F018C035
:100B00000DF019C00EF035EC06F016500624146EE8
:100B100017500720156EFB0EDB501424E96EFC0EF7
:100B2000DB501520EA6EEF50E66E19D8E552E5521B
:100B3000DF2A010E01E3DB2AC5D7FD0EDB2A020EF8
:100B4000DB2A030E01E3DB2AA3D7050EE15C02E2F8
:100B5000E16AE552E16EE552E7CFD9FF1200D9CF45
:100B6000E6FFE1CFD9FFE6528C9CFD0EDB5002E19F
:100B70008C9A01D08C8ADF6A080EDF5C0FE2FE0ED1
:100B8000DBAE02D08C8801D08C988C96DB50020DA5
:100B9000FE0EF3CFDBFF8C86DF2AEED78C8CE5527E
:080BA000E552E7CFD9FF120076
:080BA800006A0EAEDFEF05F05C
:100BB0000C6C0D1E0E1EE86A0D220E22001E09AEE0
:100BC000E9EF05F0076C081E091EE86A08220922F1
:100BD000001EC6EC06F009BEFCEF05F000AE000CEE
:100BE000076C081E091EE86A08220922036C041E0D
:100BF000051E04220522000C00BEF0EF05F001885E
:100C0000FF0C006AE86A0EAE0EEF06F00B6C0C1ECD
:100C10000D1E0E1E0C220D220E22001E09AE19EF13
:100C200006F0066C071E081E091E0722082209226C
:100C3000001EA2EC06F009BE30EF06F000AE000C7C
:100C4000066C071E081E091EE86A072208220922F0
:100C5000026C031E041E051E032204220522000C42
:100C600000BE20EF06F00188FF0C08C012F008500B
:100C70000D02F4CF07F0F3CF06F009500E02F4CFC7
:100C800009F0F3CF08F00D02F3500726F4500822C4
:100C9000E86A092212500E02F3500726F450082287
:060CA000E86A0922000CC5
:0A0CA6002A0EF66E000EF76E000E27
:100CB000F86E02010900F550A76F0900F550A86F02
:100CC00003E1A76701D03DD00900F550A26F0900EC
:100CD000F550A36F0900F550A46F09000900F55005
:100CE000E96E0900F550EA6E090009000900F550A7
:100CF000A56F0900F550A66F09000900F6CFA9F20B
:100D0000F7CFAAF2F8CFABF2A2C2F6FFA3C2F7FF69
:100D1000A4C2F8FF0201A55302E1A65307E00900AF
:100D2000F550EE6EA507F8E2A607F9D7A9C2F6FFBF
:100D3000AAC2F7FFABC2F8FF0201A707000EA85B2B
:040D4000BFD7120007
:0C0D4400056A046A036A026A200EE76E6A
:100D5000D89006360736083609360236033604368A
:100D600005360B50025C0C5003580D5004580E50C1
:100D7000055809E30B50025E0C50035A0D50045AFB
:0C0D80000E50055A062AE72EE4D7120098
:040D8C00056A046A86
:100D9000036A180EE76ED890073608360936033610
:100DA000043605360C50035C0D5004580E5005589F
:100DB00007E30C50035E0D50045A0E50055A072AE3
:060DC000E72EEAD7120045
:0A0DC60015EE00F025EE00F0F86ACB
:100DD000019C53EC06F0F1EC06F030EC00F0FBD790
:020DE0001200FF
:020DE2001200FD
:0C0DE40000000000000001000000000002
:100DF0000000000000000000002F000000000700BD
:100E0000070000147F147F1400242A7F2A12006236
:100E100064081323003649552250000005030000E2
:100E200000001C224100000041221C000014083E6A
:100E300008140008083E0808000000A06000000830
:100E40000808080800006060000000201008040284
:100E5000003E5149453E0000427F40000042615142
:100E60004946002141454B31001814127F100027DC
:100E700045454539003C4A4949300001710905039F
:100E800000364949493600064949291E00003636D0
:100E90000000000056360000000814224100001433
:100EA0001414141400004122140800020151090610
:100EB00000324959513E007C1211127C007F494991
:100EC0004936003E41414122007F4141221C007FC2
:100ED00049494941007F09090901003E4149497AD0
:100EE000007F0808087F0000417F4100002040414A
:100EF0003F01007F08142241007F40404040007FB6
:100F0000020C027F007F0408107F003E4141413EF9
:100F1000007F09090906003E4151215E007F091941
:100F200029460046494949310001017F0101003F3E
:100F30004040403F001F2040201F003F4038403FBE
:100F40000063140814630007087008070061514922
:100F5000454300007F41410000552A552A550000B5
:100F600041417F0000040201020400404040404033
:100F7000000001020400002054545478007F4844CB
:100F8000443800384444442000384444487F003802
:100F90005454541800087E0901020018A4A4A47C2B
:100FA000007F080404780000447D400000408084F5
:100FB0007D00007F102844000000417F4000007C3D
:100FC00004180478007C0804047800384444443849
:100FD00000FC242424180018242418FC007C080495
:100FE000040800485454542000043F444020003C6E
:100FF0004040207C001C2040201C003C4030403CF5
:10100000004428102844001CA0A0A07C0044645484
:081010004C44141414141414D0
:00000001FF
