:020000040000FA
:06000000D5EF06F012002E
:06002A000300DE0D0000E2
:100030006000000028020000C90D000088020000D6
:1000400015000000C80D0000AE0200000100000015
:10005000030EE66E0C0EE66E3FEC03F0E552E55241
:1000600002019851F00BE83A300FE66E57EC03F0BE
:10007000E5520F0E02019815300FE66E57EC03F0B3
:10008000E5523A0EE66E57EC03F0E5520201975145
:10009000F00BE83A300FE66E57EC03F0E5520F0E26
:1000A00002019715300FE66E57EC03F0E5523A0E59
:1000B000E66E57EC03F0E55202019651F00BE83A78
:1000C000300FE66E57EC03F0E5520F0E0201961565
:1000D000300FE66E57EC03F0E5521200956A946813
:1000E00082680DEC03F0DFEC02F0C7EC05F002D8FB
:1000F000FED7120081B00ED0050EE66EE66AEEEC79
:1001000004F0E552E55281B005D00201AE1DAE6F9C
:1001100081A0FED70201AE5103E1F8EC05F00DD24B
:1001200081B211D0050EE66EE66AEEEC04F0E552FF
:10013000E55281B208D00201A72BA751030801E2C2
:10014000A76B81A2FED781B49DD0050EE66EE66A4C
:10015000EEEC04F0E552E55281B494D081A4FED7D0
:100160000201A751030A5FE0010A30E0030A01E03F
:1001700089D00201962B0F0E961509080DE2100E7C
:100180009627F00E9615966F9651F00BE83A0508F3
:1001900003E20F0E9615966F030EE66E120EE66ED4
:1001A0003FEC03F0E552E55202019651F00BE83ABC
:1001B000300FE66E57EC03F0E5520F0E0201961574
:1001C000300FE66E57EC03F0E5525CD00201972B3E
:1001D0000F0E971509080DE2100E9727F00E9715D0
:1001E000976F9751F00BE83A050803E20F0E971549
:1001F000976F030EE66E100EE66E3FEC03F0E552CD
:10020000E55202019751F00BE83A300FE66E57ECD9
:1002100003F0E5520F0E02019715300FE66E57EC12
:1002200003F0E5522FD00201982B0F0E9815090804
:1002300005E2100E9827F00E9815986F9851F00B64
:10024000E83A020805E10F0E9815040801E1986BE1
:10025000030EE66E0C0EE66E3FEC03F0E552E5523F
:1002600002019851F00BE83A300FE66E57EC03F0BC
:10027000E5520F0E02019815300FE66E57EC03F0B1
:10028000E55200D081B632D1050EE66EE66AEEEC9C
:1002900004F0E552E55281B629D181A6FED70201CC
:1002A000A751030A01E1C3D0010A62E0030A01E099
:1002B0001DD10F0E02019615146E96390F0B0A0D03
:1002C000F35014240201A86FA96BA807000EA95BC4
:1002D000800EA91503E03B0EA86FA96BA8C214F00D
:1002E000A9C215F00A0E0D6E0E6A14C008F015C0F2
:1002F00009F06BEC06F008C014F009C015F0040E0C
:10030000D89014361536E804FBE1A8C216F0A9C24D
:1003100017F00A0E0D6E0E6A16C008F017C009F02D
:100320006BEC06F004C016F005C017F00F0E1616A1
:10033000000E1716145016100201966F030EE66E8B
:10034000120EE66E3FEC03F0E552E55202019651C3
:10035000F00BE83A300FE66E57EC03F0E5520F0E63
:1003600002019615300FE66E57EC03F0E552BED051
:100370000F0E02019715146E97390F0B0A0DF350EB
:1003800014240201AC6FAD6BAC07000EAD5B800EA8
:10039000AD1503E03B0EAC6FAD6BACC214F0ADC25B
:1003A00015F00A0E0D6E0E6A14C008F015C009F0A3
:1003B0006BEC06F008C014F009C015F0040ED890DC
:1003C00014361536E804FBE1ACC216F0ADC217F0E6
:1003D0000A0E0D6E0E6A16C008F017C009F06BEC1D
:1003E00006F004C016F005C017F00F0E1616000E2A
:1003F0001716145016100201976F030EE66E100EBA
:10040000E66E3FEC03F0E552E55202019751F00B26
:10041000E83A300FE66E57EC03F0E5520F0E02019A
:100420009715300FE66E57EC03F0E5525FD00F0ED4
:1004300002019815146E98390F0B0A0DF35014240D
:100440000201AA6FAB6BAA07000EAB5B800EAB1567
:1004500003E0170EAA6FAB6BAAC214F0ABC215F083
:100460000A0E0D6E0E6A14C008F015C009F06BEC90
:1004700006F008C014F009C015F0040ED890143628
:100480001536E804FBE1AAC216F0ABC217F00A0E5B
:100490000D6E0E6A16C008F017C009F06BEC06F07E
:1004A00004C016F005C017F00F0E1616000E171632
:1004B000145016100201986F030EE66E0C0EE66ED5
:1004C0003FEC03F0E552E55202019851F00BE83A97
:1004D000300FE66E57EC03F0E5520F0E020198154F
:1004E000300FE66E57EC03F0E55200D0E66A8E0E50
:1004F000E66E28EC05F0E552E55296C2E6FF8FC2A3
:10050000E6FF28EC05F0E552E55297C2E6FF90C2FF
:10051000E6FF28EC05F0E552E55298C2E6FF91C2ED
:10052000E6FF28EC05F0E552E552800EE66E8E0EF1
:0E053000E66E28EC05F0E552E55228EF00F0EB
:02053E00D9CF13
:10054000E6FFE1CFD9FF020EE126DE6ADD6ADECFEB
:1005500014F0DDCF15F0E80E145C030E155805E21B
:10056000DF2A010E01E3DB2AF2D7020EE15C02E290
:10057000E16AE552E16EE552E7CFD9FF1200D9CF2B
:10058000E6FFE1CFD9FF020EE126DE6ADD6ADECFAB
:1005900014F0DDCF15F0740E145C040E155805E24E
:1005A000DF2A010E01E3DB2AF2D7020EE15C02E250
:1005B000E16AE552E16EE552E7CFD9FF12008C9E69
:1005C000BEDF8C8E8C9CBBDF8C8CB9DFE66A210E83
:1005D000E66EDFD9E552E552E66AC80EE66ED9D975
:1005E000E552E552E66A060EE66ED3D9E552E552CB
:1005F000E66A130EE66ECDD9E552E552E66A200EA4
:10060000E66EC7D9E552E55208D8E66A0C0EE66EEA
:10061000C0D9E552E5528C9C1200D9CFE6FFE1CF5C
:10062000D9FF020EE126E66A0C0EE66EB2D9E5525B
:10063000E552E66A800EE66EACD9E552E552DE6A16
:10064000DD6ADECF14F0DDCF15F0F80E145C010E7C
:1006500015580BE2010EE66EE66A9BD9E552E552AB
:10066000DF2A010E01E3DB2AECD7020EE15C02E295
:10067000E16AE552E16EE552E7CFD9FF1200D9CF2A
:10068000E6FFE1CFD9FFE66AFD0EDB504009E66EDA
:1006900080D9E552E552E66AFE0EDB508009E66E2F
:1006A00078D9E552E552E552E7CFD9FF1200D9CF0C
:1006B000E6FFE1CFD9FFE652200E146EFE0EDBCF2F
:1006C000E7FF1450E75EFE0EE7CFDBFFDF6A060EA2
:1006D000DF5C1BE2010EE66EFE0EDB50060DF3CF73
:1006E00014F0F4CF15F0600E1426000E1522DF5022
:1006F0000F011424E96E000E1520EA6EEF50E66E2D
:1007000048D9E552E552DF2AE2D7E552E552E7CF74
:10071000D9FF1200D9CFE6FFE1CFD9FFFD0EDBCF25
:10072000E6FFFE0EDBCFE6FFAADFE552E552FB0E49
:10073000DBCFE9FFFC0EDBCFEAFFEF5010E0FB0E52
:10074000DBCFE9FFFC0EDBCFEAFFEF50E66EAFDF59
:10075000E552FB0EDB2AFC0E01E3DB2AE8D7E5526B
:10076000E7CFD9FF1200D9CFE6FFE1CFD9FF020EC4
:10077000E126FD0EDBCFE6FFFE0EDBCFE6FF7FDFDF
:10078000E552E552DF6AFB0EDB50DF5C6DE2010EE5
:10079000DB6AFC0EDB50E824F36E010EDBCFF4FFC6
:1007A000F350F45C4AE2FC0EDB50F36E010EDB50BA
:1007B000F35C21E1DF500AE1FD0EDB28E66EFE0E60
:1007C000DBCFE6FF5CDFE552E55215D0FD0EDB28FE
:1007D000E66EFE0EDBCFE6FFF90EDBCFE6FFFC0E8A
:1007E000DB50E552E724DF02F350E552E724E66EE2
:1007F00046DFE552E552010EE66EF70EDBCF16F04E
:10080000F80EDBCF17F0FA0EDB50DF241A0D16506E
:10081000F324146E1750F420156E010EDB500F01F7
:100820001424E96E000E1520EA6EEF50E66EB1D882
:10083000E552E552010EDB2AACD7DF2AFD0EDBCFF5
:10084000E6FFFE0EDBCFE6FFF90EDBCFE6FFFC0E88
:10085000DB50E552E724DF02F350E552E724E66E71
:100860000EDFE552E5528FD7020EE15C02E2E16A4B
:10087000E552E16EE552E7CFD9FF1200D9CFE6FF8E
:10088000E1CFD9FF050EE126F90EDB50070B0BE196
:10089000F90EDB50F80BE842E842E842E76E040E3E
:1008A000E7CFDBFF0BD0F90EDB50F80BE842E84254
:1008B000E842010FE76E040EE7CFDBFF020EDB6AB2
:1008C000030EDB6A020EDBCF14F0030EDBCF15F054
:1008D000040EDB50166E176A1650145C175015582C
:1008E0004EE2FD0EDBCFE6FFFE0EDBCFE6FFC7DEFE
:1008F000E552E552DE6ADD6ADECF14F0DDCF15F099
:10090000FA0EDB50166E176A1650145C1750155805
:100910002EE2010EE66EDECF16F0DDCF17F0FA0EF6
:10092000DB50186E196A020EDBCF08F0030EDBCF26
:1009300009F018C00DF019C00EF091EC06F0165039
:100940000624146E17500720156EFB0EDB5014247E
:10095000E96EFC0EDB501520EA6EEF50E66E19D8FA
:10096000E552E552DF2A010E01E3DB2AC5D7FD0E71
:10097000DB2A020EDB2A030E01E3DB2AA3D7050ED6
:10098000E15C02E2E16AE552E16EE552E7CFD9FFB0
:100990001200D9CFE6FFE1CFD9FFE6528C9CFD0EC5
:1009A000DB5002E18C9A01D08C8ADF6A080EDF5C92
:1009B0000FE2FE0EDBAE02D08C8801D08C988C96B4
:1009C000DB50020DFE0EF3CFDBFF8C86DF2AEED765
:0C09D0008C8CE552E552E7CFD9FF1200F5
:0409DC00D9CFE6FF8A
:1009E000E1CFD9FF040EE66EC5EC06F0E552FD0E30
:1009F000DB06DBCF14F0FE0E01E2DB06DBCF15F0E9
:100A000014501510EFE1E552E7CFD9FF1200D9CF0E
:100A1000E6FFE1CFD9FFE652DF6ADF50146E156AB8
:100A2000FD0EDBCF16F0FE0EDBCF17F015501718BA
:100A3000E8AE02D0173404D01650145C1750155885
:100A400002E2DF2AEAD7E552E552E7CFD9FF1200EA
:100A5000D9CFE6FFE1CFD9FFE6528292000082862D
:100A60000000DF6A080EDF5C15E2FE0EDB50010BB2
:100A7000E8B08284E8A08294FE0EDBCFF3FFF3900F
:100A8000F342FE0EF3CFDBFF828200008292000071
:100A9000DF2AE8D7DF6A080EDF5C15E2FD0EDB50C7
:100AA000010BE8B08284E8A08294FD0EDBCFF3FF57
:100AB000F390F342FD0EF3CFDBFF828200008292BF
:100AC0000000DF2AE8D782960000E552E552E7CF22
:100AD000D9FF1200D9CFE6FFE1CFD9FF030EE126FF
:100AE0008292000082860000DF6A080EDF5C15E259
:100AF000FE0EDB50010BE8B08284E8A08294FE0E6B
:100B0000DBCFF3FFF390F342FE0EF3CFDBFF8282E5
:100B1000000082920000DF2AE8D70000040E946EE5
:100B2000DF6A080EDF5C1BE28250040B01E0010E5D
:100B3000E76E020EE7CFDBFF020EDB50800DF3CF36
:100B400014F0010EDB407F0B1410E76E010EE7CFAF
:100B5000DBFF8282000082920000DF2AE2D7946AE3
:100B6000829600008282000082940000828400004D
:100B7000010EDB5000D0146E030EE15C02E2E16A6C
:100B8000E552E16E1450E552E7CFD9FF1200D9CFFC
:100B9000E6FFE1CFD9FFE652946AE66A8E0EE66E72
:100BA00057DFE552E552DF6A070EDF5C15E2DF50E2
:100BB000EA6A960FE96E020EEA22EF50E66EDF5007
:100BC000EA6A8F0FE96E020EEA22EF50E66E40DF0E
:100BD000E552E552DF2AE8D7800EE66E8E0EE66E0D
:100BE00037DFE552E552E552E552E7CFD9FF120073
:100BF000D9CFE6FFE1CFD9FFE652DF6A070EDF5C0F
:100C000016E2DF50EA6A880FE96E020EEA22EF5020
:100C1000E66E60DFE552E66EDF50EA6A960FE96E37
:100C2000020EEA22E552E750EF6EDF2AE7D7E552DF
:080C3000E552E7CFD9FF1200E5
:080C38002A0EF66E000EF76EA5
:100C4000000EF86E02010900F550A26F0900F55080
:100C5000A36F03E1A26701D03DD00900F5509D6F5D
:100C60000900F5509E6F0900F5509F6F09000900BB
:100C7000F550E96E0900F550EA6E09000900090017
:100C8000F550A06F0900F550A16F09000900F6CFDB
:100C9000A4F2F7CFA5F2F8CFA6F29DC2F6FF9EC24E
:100CA000F7FF9FC2F8FF0201A05302E1A15307E042
:100CB0000900F550EE6EA007F8E2A107F9D7A4C22B
:100CC000F6FFA5C2F7FFA6C2F8FF0201A207000EB9
:060CD000A35BBFD7120078
:0A0CD600006A0EAE74EF06F00D6C1C
:100CE0000E1EE86A0E22001E09AE7CEF06F0086CAC
:100CF000091EE86A0922001EAFEC06F009BE8CEF5F
:100D000006F000AE000C086C091EE86A0922046CAB
:100D1000051EE86A0522000C00BE83EF06F001887C
:100D2000FF0C08C012F008500D02F4CF07F0F3CF0B
:100D300006F009500E02F4CF09F0F3CF08F00D02CF
:100D4000F3500726F4500822E86A092212500E02D6
:0E0D5000F3500726F4500822E86A0922000C2E
:020D5E00056A24
:100D6000046A100EE76ED890083609360436053648
:100D70000D50045C0E50055805E30D50045E0E50F6
:0A0D8000055A082AE72EF0D71200EA
:060D8A00FF0EE3501A6E9B
:100D9000480E01D04C0EE76EE72EFED7E76AE72E2D
:0A0DA000FED71A2EF7D7000012004C
:060DAA0015EE00F025EE3D
:100DB00000F0F86A019C1CEC06F0E3EC06F06EEC27
:060DC00000F0FBD7120059
:020DC600120019
:010DC800002A
:070DC90081838587898B8D72
:0E0DD00080828486888A8C000012010104153E
:020DDE00000013
:100DE000000000000000002F0000000007000700C6
:100DF00000147F147F1400242A7F2A1200626408E2
:100E0000132300364955225000000503000000005E
:100E10001C224100000041221C000014083E08145E
:100E20000008083E0808000000A06000000808084C
:100E30000808000060600000002010080402003E66
:100E40005149453E0000427F400000426151494601
:100E5000002141454B31001814127F1000274545F1
:100E60004539003C4A494930000171090503003603
:100E70004949493600064949291E00003636000016
:100E8000000056360000000814224100001414141B
:100E90001414000041221408000201510906003216
:100EA0004959513E007C1211127C007F4949493654
:100EB000003E41414122007F4141221C007F4949BF
:100EC0004941007F09090901003E4149497A007FF3
:100ED0000808087F0000417F4100002040413F0199
:100EE000007F08142241007F40404040007F020CF8
:100EF000027F007F0408107F003E4141413E007F99
:100F000009090906003E4151215E007F0919294661
:100F10000046494949310001017F0101003F40403D
:100F2000403F001F2040201F003F4038403F0063EB
:100F3000140814630007087008070061514945430D
:100F400000007F41410000552A552A5500004141CB
:100F50007F000004020102040040404040400000C5
:100F600001020400002054545478007F484444385F
:100F700000384444442000384444487F00385454E6
:100F8000541800087E0901020018A4A4A47C007F64
:100F9000080404780000447D4000004080847D0007
:100FA000007F102844000000417F4000007C0418AE
:100FB0000478007C0804047800384444443800FC79
:100FC000242424180018242418FC007C0804040895
:100FD00000485454542000043F444020003C40400A
:100FE000207C001C2040201C003C4030403C004441
:100FF00028102844001CA0A0A07C004464544C4449
:0610000014141414141472
:00000001FF
